:100000004BC0000067C0000065C0000063C0000076
:1000100061C000005FC000005DC000005BC0000068
:1000200059C0000057C0000055C000000C943B0EA2
:1000300051C0000021C300004DC000004BC00000B3
:1000400024C4000047C0000045C0000043C00000B9
:100050000C94EF0B0C94E30D3DC000003BC000007E
:1000600039C0000037C0000035C0000033C00000B8
:100070000C94190C0C940B0E2DC000002BC000002A
:1000800041C2000027C0000025C000006364696E03
:100090006F70737578585B0011241FBECFEFD0E4EA
:1000A000DEBFCDBF13E0A0E0B1E0E4E8F1E300E0A3
:1000B0000BBF02C007900D92A838B107D9F724E012
:1000C000A8E8B3E001C01D92AD30B207E1F711D04E
:1000D0000C94C01895CFA0E0B0E0E1E7F0E00C94FC
:1000E000800F809106018F5F80930601E2E00C94FF
:1000F0009C0FAAE4B0E0EFE7F0E00C94800F1A82C6
:1001000019820E94E70937D0E4D24CD4F6D70E9476
:10011000B90EDC01CB018B839C83AD83BE837894C5
:100120008091900390919103009709F182E290E011
:1001300022E230E0F901308124E02327FC01208312
:100140008091920390919303A0919403B0919503B1
:100150000196A11DB11D8093920390939303A093E8
:100160009403B093950310929103109290030E9410
:10017000AD0D59D6D5CFA2E0B0E0E1ECF0E00C94A3
:10018000800F81E290E0FC0110828AE290E0FC01A5
:10019000108281E290E0FC01108281E290E021E295
:1001A00030E0F90120812460FC0120838AE290E0A4
:1001B0002AE230E0F90120812062FC01208381E203
:1001C00090E021E230E0F90120812160FC012083F0
:1001D00082E290E022E230E0F90120812460FC011B
:1001E00020838BE290E02BE230E0F9012081206255
:1001F000FC01208382E290E022E230E0F9012081DC
:100200002160FC0120831A8219822FC01092BE0344
:100210001092BF031092C0031092C10313C08091CB
:10022000BE039091BF03A091C003B091C10301969A
:10023000A11DB11D8093BE039093BF03A093C00383
:10024000B093C1038091BE039091BF03A091C003FE
:10025000B091C1038231F5E19F07A105B105F8F224
:1002600089819A8101969A83898389819A81883CC0
:10027000910564F282E290E022E230E0F90120810F
:100280002B7FFC0120838BE290E02BE230E0F90130
:1002900020812F7DFC01208382E290E022E230E089
:1002A000F90120812E7FFC01208310929603109289
:1002B0009703109298031092990310929203109250
:1002C0009303109294031092950310929A03109244
:1002D0009B0310929C0310929D032296E2E00C94E3
:1002E0009C0FA7E0B0E0E7E7F1E00C947E0F898374
:1002F0007B836A838A819B8199232CF486E391E036
:100300000E946912FBC08A819B8124E630E0B9011A
:100310000E94310F2A813B81A901481B590BCA0158
:100320009B838A838B818F938A818F9381E591E070
:10033000892F8F9381E591E08F930E9458120F903F
:100340000F900F900F908981823519F08981813447
:10035000E9F48A819B81009751F481E290E021E2E7
:1003600030E0F90120812B7FFC0120830FC081E266
:1003700090E021E230E0F90120812460FC0120833B
:100380008A819B8190930101809300018981893545
:1003900019F08981813419F58A819B81009751F484
:1003A00081E290E021E230E0F90120812E7FFC0122
:1003B000208315C081E290E021E230E0F901208144
:1003C0002160FC0120838A819B8124E630E0B90111
:1003D0000E94310FCB019093050180930401898124
:1003E000873421F08981813409F088C08A819B811A
:1003F000009751F48AE290E02AE230E0F90120818E
:100400002F7DFC0120837AC08AE290E02AE230E06E
:10041000F90120812062FC0120838A819B81813A3D
:10042000FFE09F0724F080EA9FE09B838A838A8114
:100430009B8190930301809302018A819B8118160E
:1004400019060CF05BC006E810E080910201909163
:100450000301CC01A0E0B0E0BC01CD010E94F60F89
:10046000DC01CB012DE73FE34CE951E4BC01CD01B8
:100470000E945C10DC01CB01BC01CD010E94CA0FBF
:10048000DC01CB01F801918380838091020190917E
:100490000301292F2F938F9382E791E0892F8F9368
:1004A00082E791E08F930E9458120F900F900F9067
:1004B0000F9088E890E026E830E0F9012081318152
:1004C00036952795FC01318320838091020190911C
:1004D0000301292F2F938F931F928AE08F9383E834
:1004E00091E0892F8F9383E891E08F930E945812B7
:1004F0000F900F900F900F900F900F902796E4E0C1
:100500000C949A0F1F920F9200905F000F9211248B
:1005100000905B000F922F933F934F935F936F93E5
:100520007F938F939F93AF93BF93EF93FF93CF935B
:10053000DF93CDB7DEB72697DEBFCDBF80918803AE
:1005400090918903A0918A03B0918B030196A11D1C
:10055000B11D8093880390938903A0938A03B0937D
:100560008B038091880390918903A0918A03B091B5
:100570008B032091040130910501990140E050E086
:10058000BC01CD010E94440FDC01CB010097A10505
:10059000B105E9F482E290E022E230E0F901308135
:1005A00021E02327FC01208380919A0390919B03F3
:1005B000A0919C03B0919D030196A11DB11D809354
:1005C0009A0390939B03A0939C03B0939D0378940C
:1005D0001A8219822FC01092BE031092BF0310928C
:1005E000C0031092C10313C08091BE039091BF035A
:1005F000A091C003B091C1030196A11DB11D8093CC
:10060000BE039093BF03A093C003B093C103809136
:10061000BE039091BF03A091C003B091C10382318A
:10062000F5E19F07A105B105F8F289819A8101964C
:100630009A83898389819A818333910564F226960E
:100640000FB6F894DEBF0FBECDBFDF91CF91FF9103
:10065000EF91BF91AF919F918F917F916F915F913A
:100660004F913F912F910F9000925B000F9000925D
:100670005F000F901F9018951F920F9200905F00DF
:100680000F9211248F939F93AF93BF93CF93DF93D8
:10069000CDB7DEB78091960390919703A091980310
:1006A000B09199030196A11DB11D8093960390937B
:1006B0009703A0939803B0939903DF91CF91BF91D3
:1006C000AF919F918F910F9000925F000F901F90BC
:1006D0001895A0E0B0E0EFE6F3E00C947E0F84E420
:1006E00090E022E8FC01208385E490E024E0FC0116
:1006F000208380EB91E00E94691287E490E02DE472
:10070000FC0120838EE690E022E0FC012083109221
:100710008C0310928D0310928E0310928F0380E948
:1007200090E020E8FC01208381E990E02BE0FC01CF
:10073000208388E990E022E13AE7FC0131832083BD
:100740001F9284E68F931F928AE08F9389EE91E047
:10075000892F8F9389EE91E08F930E9458120F900A
:100760000F900F900F900F900F9081E790E022E094
:10077000FC012083109288031092890310928A034F
:1007800010928B0380E890E022ECFC01208381E84A
:1007900090E025E1FC01208306E810E08091020151
:1007A00090910301CC01A0E0B0E0BC01CD010E941A
:1007B000F60FDC01CB012DE73FE34CE951E4BC012E
:1007C000CD010E945C10DC01CB01BC01CD010E9477
:1007D000CA0FDC01CB01F801918380838091020173
:1007E00090910301292F2F938F9380E292E0892F1C
:1007F0008F9380E292E08F930E9458120F900F9097
:100800000F900F9088E890E026E830E0F901208111
:10081000318136952795FC013183208388E890E06B
:10082000FC0180819181292F2F938F9382E392E0A5
:10083000892F8F9382E392E08F930E9458120F903A
:100840000F900F900F908091020190910301292F3A
:100850002F938F9383E08F9388EE8F9384E492E0BD
:10086000892F8F9384E492E08F930E9458120F9007
:100870000F900F900F900F900F908FE690E022E076
:10088000FC012083E4E00C949A0F1F920F920090D9
:100890005F000F92112400905B000F922F933F9303
:1008A0004F935F936F937F938F939F93AF93BF9378
:1008B000EF93FF93CF93DF9300D000D0CDB7DEB797
:1008C00080918C0390918D03A0918E03B0918F0342
:1008D0000196A11DB11D80938C0390938D03A0936D
:1008E0008E03B0938F0380918C0390918D03A09120
:1008F0008E03B0918F032091000130910101990185
:1009000040E050E0BC01CD010E94440FDC01CB016E
:100910000097A105B10531F481E090E09093910337
:10092000809390030F900F900F900F90DF91CF91D5
:10093000FF91EF91BF91AF919F918F917F916F91B7
:100940005F914F913F912F910F9000925B000F901C
:1009500000925F000F901F901895A0E0B0E0E3EBCD
:10096000F4E00C94800F809107018F5F8093070162
:10097000E2E00C949C0FA4E0B0E0E1ECF4E00C9415
:10098000800F9A8389837C836B832B8189819A81F1
:10099000422FBC0182E00E94E10DA3D22496E2E046
:1009A0000C949C0FA0E2B0E0E8EDF4E00C94800F12
:1009B00040E855E260E070E082E00E94FF0C40E217
:1009C00062EC73E082E009D768E170E08AE792E0C8
:1009D000D2DF6BE170E083E992E0CDDFA096E2E048
:1009E0000C949C0FAAE2B0E0E8EFF4E00C947C0FCA
:1009F0009AA789A7CE018796292F2F938F93CE018F
:100A00008596292F2F938F93CE018696292F2F938A
:100A10008F938FEA92E0892F8F938FEA92E08F93E2
:100A20008AA58F9389A58F930E94C4122DB73EB7D4
:100A3000265F3F4F0FB6F894DEBF0FBECDBF9A833F
:100A400089834FA158A58DA1282F332727FD3095E5
:100A50008EA1992787FD9095652F6F934F93432F14
:100A60004F932F93292F2F938F9388EB92E0892F09
:100A70008F9388EB92E08F93CE010596292F2F93C9
:100A80008F930E9496122DB73EB7265F3F4F0FB649
:100A9000F894DEBF0FBECDBF9C838B832B813C813E
:100AA000CE010596B90167DF8DA1813634F08DA1A5
:100AB0008B371CF481E090E002C080E090E0982F3A
:100AC00080EE989F902D11248DA1890F8DA38DA16B
:100AD000992787FD909587349105C1F08834910559
:100AE00024F48134910591F006C08235910571F0AE
:100AF0008935910559F067E170E08CEC92E03BDFBD
:100B00006BE170E083E992E036DF89C100008EA1DD
:100B1000992787FD90958A35910509F416C18B3583
:100B200091053CF480359105B1F08435910561F073
:100B30006CC18437910541F08A37910509F405C1EC
:100B40008037910541F061C18FA198A52DA1BC010D
:100B5000822FC7DB5FC18DA1992787FD90958734D0
:100B6000910509F43FC0883491052CF48134910536
:100B700009F496C0E3C08235910529F089359105C5
:100B800009F45FC0DBC08091920390919303A09120
:100B90009403B09195032B2F2F932A2F2F93292F56
:100BA0002F938F9384EE92E0892F8F9384EE92E0BF
:100BB0008F93CE010596292F2F938F930E94961223
:100BC0002DB73EB7285F3F4F0FB6F894DEBF0FBE7C
:100BD000CDBF9C838B832B813C81CE010596B901CF
:100BE000CADEB2C08091960390919703A0919803BA
:100BF000B09199032B2F2F932A2F2F93292F2F93C7
:100C00008F9385EF92E0892F8F9385EF92E08F93FA
:100C1000CE010596292F2F938F930E9496122DB700
:100C20003EB7285F3F4F0FB6F894DEBF0FBECDBF73
:100C30009C838B832B813C81CE010596B9019BDE81
:100C400083C080919A0390919B03A0919C03B091E3
:100C50009D032B2F2F932A2F2F93292F2F938F9381
:100C600086E093E0892F8F9386E093E08F93CE0107
:100C70000596292F2F938F930E9496122DB73EB77A
:100C8000285F3F4F0FB6F894DEBF0FBECDBF9C83E9
:100C90008B832B813C81CE010596B9016CDE54C05B
:100CA000E0909A03F0909B0300919C0310919D03A8
:100CB00020919603309197034091980350919903A6
:100CC0008091920390919303A0919403B091950326
:100CD000612F6F93602F6F936F2D6F936E2D6F93B6
:100CE000652F6F93642F6F93632F6F932F932B2F29
:100CF0002F932A2F2F93292F2F938F9387E193E000
:100D0000892F8F9387E193E08F93CE010596292F4A
:100D10002F938F930E9496122DB73EB7205F3F4FBF
:100D20000FB6F894DEBF0FBECDBF9C838B832B81A3
:100D30003C81CE010596B9011EDE06C06BE170E074
:100D400083E393E018DE66C065C08DA1992787FD17
:100D5000909587349105B9F08834910524F4813455
:100D6000910519F14BC08235910521F08935910526
:100D700099F044C01092920310929303109294033E
:100D80001092950341C0109296031092970310920F
:100D900098031092990338C010929A0310929B0303
:100DA00010929C0310929D032FC010929A031092F0
:100DB0009B0310929C0310929D0380919A03909143
:100DC0009B03A0919C03B0919D0380939603909305
:100DD0009703A0939803B093990380919603909101
:100DE0009703A0919803B0919903809392039093F5
:100DF0009303A0939403B093950306C06BE170E056
:100E00008FE493E0B8DD06C005C06BE170E08BE6CF
:100E100093E0B1DD6BE170E083E992E0ACDDAA968E
:100E2000E6E00C94980FA0E2B0E0E9E1F7E00C9462
:100E3000800F28C080919F039091A0032091E2032E
:100E4000222F30E02E533C4FF90140819E012F5F4D
:100E50003F4F820F931FFC01408380919F0390912D
:100E6000A00301969093A00380939F038091E203D7
:100E70008F3119F41092E20305C08091E2038F5F75
:100E80008093E20382E0A5D2982F8091E203981725
:100E900089F680919F039091A0030097F1F08091D3
:100EA0009F039091A0038130910529F41092A00333
:100EB00010929F0312C080919F039091A0039E0106
:100EC0002F5F3F4F820F931FFC011082CE010196CE
:100ED00089DD1092A00310929F03A096E2E00C948B
:100EE0009C0FA0E0B0E0E7E7F7E00C94800F01C0B2
:100EF00034D682E07ED28823D9F3E2E00C949C0FB2
:100F000080E090E0089581E090E06F9364E06A955E
:100F1000F1F76F910197C9F708950F931F93CF933E
:100F2000DF9317B13D982898299AC0E0D0E0EBDF15
:100F30002A9AE9DF06B12A98E6DF2A9AE4DF2A989E
:100F4000249605FF10C09E0140E050E08091A5036B
:100F50009091A603A091A703B091A8032817390781
:100F60004A075B0720F39E0140E050E08091A50313
:100F70009091A603A091A703B091A8032817390761
:100F80004A075B0728F082E390E0A0E0B0E004C0ED
:100F900080E395E7A0E0B0E08093A5039093A603DB
:100FA000A093A703B093A80317B9DF91CF911F9126
:100FB0000F91089528B190E08F709070880F991F5D
:100FC000880F991F237C282B28B92A9A9CDF2A98FE
:100FD0009ACFA2E0B0E0EEEEF7E08FC7182F4A8379
:100FE000698357D09ADFF7B008B1299869814A819F
:100FF000662311F0289A01C0289887B18C6387B9BD
:10100000413021F0812F82958F70D4DF812F8F7036
:10101000D1DFF7B808B92296E5E08BC760E042E07F
:10102000D8CF61E042E0D5CF60E041E0D2CF3D983B
:10103000459A80E395E7A0E0B0E08093A503909304
:10104000A603A093A703B093A803209A219A229AFB
:101050008EE190E057D683E0E7DF86E090E052D65D
:1010600083E0E2DF82E090E04DD683E0DDDF82E0E6
:1010700090E048D682E0D8DF82E090E043D688E274
:10108000CDDF88E0CBDF81E0C9DF86E0C7DF8CE021
:10109000C5CF8091A903882321F481E08093A9031F
:1010A000C6CF089581E0BADF8091A1039091A20399
:1010B000009711F1A0E0B0E208C0E091A103F09127
:1010C000A203E20FF31FB083AF5F2A2F30E08091BD
:1010D000080190E001976091090170E0869FA001EE
:1010E000879F500D969F500D1124241735072CF320
:1010F0001092A4031092A3030895D4CF0895A5E0FD
:10110000B0E0E4E8F8E0FBC6182F80E8898380ECC3
:101110008A8384E98B8384ED8C83FE01E60FF11DC5
:101120008181810F6D837ADF1093A4036D816093B9
:10113000A3032596E3E0FFC6A0E0B0E0E1EAF8E013
:10114000D9C6D82E8091A1039091A203009709F4EB
:10115000F2C02D2D2A3009F442C02830C9F4809104
:10116000A40381508093A4038F3F51F48091A30383
:1011700081508093A3038091090181508093A4033F
:101180008091A3038F3F09F0D1C01092A303CCC07C
:101190008D2D47DF8091A3038823B9F090E001975C
:1011A0004091090150E0849F9001859F300D949FEC
:1011B000300D11248091A403E091A103F091A203CA
:1011C000E20FF31FE80FF11DD0828091A4038F5F1F
:1011D0008093A40390910901891709F0ACC0409154
:1011E000A303242F30E08091080190E00197281795
:1011F000390709F096C0C0E0D0E03FC080E06C2F16
:101200007EDFCC248E010F5F1F4F32C0EC2CFF24F9
:1012100030E0C29FC001C39F900DD29F900D11245A
:10122000E091A103F091A203EE0DFF1DE80FF91F5D
:101230008081F7DE8091A1039091A20320910901A2
:1012400030E0C29FF001C39FF00DD29FF00D11243A
:101250008E0D9F1DE80FF91F029FD001039FB00D57
:10126000129FB00D1124A80FB91F8C918083C394D5
:1012700020910901C21650F2E80160910801862F01
:1012800090E00297C817D9070CF4B8CF6230D0F1BC
:10129000625080E034DF00E010E230C0C02FD0E0C8
:1012A0008091080190E0029750E0849F9001859F13
:1012B000300D949F300D1124E091A103F091A20311
:1012C000EC0FFD1FE20FF31F8081ABDE8091080160
:1012D00090E002974091090150E0849F9001859F22
:1012E000300D949F300D1124E091A103F091A203E1
:1012F000EC0FFD1FE20FF31F10830F5F40910901F8
:10130000041760F260910801615080E0F8DE10E09F
:1013100003C080E286DE1F5F809109011817C8F3C1
:1013200003C04F5F4093A3031092A4038091A403D2
:101330006091A303E4DE2D2D332727FD3095C901ED
:10134000CDB7DEB7E8E0F2C58091A1039091A2038A
:10135000009709F0D4D72091080130E021503040A7
:101360008091090190E0AC01249FC001259F900D60
:10137000349F900D11242BD79093A2038093A10347
:10138000009721F1A0E0B0E208C0E091A103F09144
:10139000A203E20FF31FB083AF5F2A2F30E08091EA
:1013A000080190E001976091090170E0869FA0011B
:1013B000879F500D969F500D1124241735072CF34D
:1013C0008CE998E060E877E00C940E120895BCCFA9
:1013D0000895282F30E0F901EE0FFF1F43E0220FA0
:1013E000331F4A95E1F7E20FF31FE65FFE4F82815C
:1013F0000895282F30E0F901EE0FFF1F73E0220F50
:10140000331F7A95E1F7E20FF31FE65FFE4F41814C
:10141000282F30E0F901EE0FFF1F53E0220F331F9A
:101420005A95E1F7E20FF31FE65FFE4F81E09381EB
:10143000491380E00895282F30E0F901EE0FFF1FD7
:10144000B3E0220F331FBA95E1F7E20FF31FE65F17
:10145000FE4F408551854115510509F452C0282F92
:1014600030E0F901EE0FFF1F73E0220F331F7A9572
:10147000E1F7E20FF31FE65FFE4F7281282F30E0A5
:10148000F901EE0FFF1FB3E0220F331FBA95E1F70A
:10149000E20FF31FE65FFE4F9481791790F5282F36
:1014A00030E0F901EE0FFF1F73E0220F331F7A9532
:1014B000E1F7E20FF31FE65FFE4F9281490F511DE6
:1014C000FA016083282F30E0F901EE0FFF1F53E08F
:1014D000220F331F5A95E1F7E20FF31FE65FFE4F2D
:1014E00092819F5F282F30E0F901EE0FFF1FB3E0DC
:1014F000220F331FBA95E1F7E20FF31FE65FFE4FAD
:101500009283282F30E0F901EE0FFF1F73E0220FC6
:10151000331F7A95E1F7E20FF31FE65FFE4F42813A
:10152000282F30E0F901EE0FFF1F53E0220F331F89
:101530005A95E1F7E20FF31FE65FFE4F94814917DA
:1015400001F5282F30E0F901EE0FFF1F93E0220F85
:10155000331F9A95E1F7E20FF31FE65FFE4F958187
:10156000992379F0282F30E0F901EE0FFF1FB3E047
:10157000220F331FBA95E1F7E20FF31FE65FFE4F2C
:10158000128208950F931F93182F823009F474C0AC
:10159000882319F4E1ECF0E002C0E9ECF0E080818E
:1015A0008F778083812F90E0FC01EE0FFF1F03E017
:1015B000880F991F0A95E1F7E80FF91FE65FFE4FC4
:1015C000808591850097A1F1212F30E0F901EE0F80
:1015D000FF1FA3E0220F331FAA95E1F7E20FF31FCD
:1015E000E65FFE4F9281212F30E0F901EE0FFF1FE1
:1015F00063E0220F331F6A95E1F7E20FF31FE65F06
:10160000FE4F84819817A0F4112319F4E0ECF0E068
:1016100002C0E8ECF0E0808187FF0AC0112319F4D2
:10162000E6ECF0E002C0EEECF0E06081812F03DF39
:10163000212F30E0F901EE0FFF1F43E0220F331F8F
:101640004A95E1F7E20FF31FE65FFE4F80818823A2
:1016500009F057C0112319F4E1ECF0E002C0E9EC05
:10166000F0E08081806880834CC0809123018823D2
:1016700019F01092200145C0809126019091270118
:10168000009709F43EC090912001809122019817A3
:10169000C0F58091AA03882399F470D38093AA039C
:1016A00010E00AC068D3E02FF0E03197E11BF109A8
:1016B000E555FC4F80831F5F0091AA03101790F33C
:1016C000A091AA03AA23E9F080912001E0912601CC
:1016D000F0912701E80FF11DA150A093AA03B0E0FB
:1016E000A555BC4F8C918083809120018F5F8093A2
:1016F00020019091200180912201981709F0BCCF20
:10170000B4CF1F910F910895823051F0882319F4BE
:10171000E1ECF0E002C0E9ECF0E090819F7790838B
:10172000A82FB0E0FD01EE0FFF1F53E0AA0FBB1F73
:101730005A95E1F7EA0FFB1FE65FFE4F718760875E
:10174000682F70E0FB01EE0FFF1F93E0660F771F1D
:101750009A95E1F7E60FF71FE65FFE4F1282682FBA
:1017600070E0FB01EE0FFF1FA3E0660F771FAA9545
:10177000E1F7E60FF71FE65FFE4F4483482F50E086
:10178000FA01EE0FFF1F63E0440F551F6A95E1F762
:10179000E40FF51FE65FFE4F25838230D9F0282F36
:1017A00030E0F901EE0FFF1F43E0220F331F4A958F
:1017B000E1F7E20FF31FE65FFE4F9081992351F4AA
:1017C000882319F4E1ECF0E002C0E9ECF0E080815C
:1017D00080688083089521E097CFFDCF08951F9200
:1017E0000F920FB60F920BB60F9211242F933F93C7
:1017F0004F935F936F937F938F939F93AF93BF9319
:10180000EF93FF936091C60080E015DEFF91EF91AA
:10181000BF91AF919F918F917F916F915F914F9108
:101820003F912F910F900BBE0F900FBE0F901F9006
:1018300018951F920F920FB60F920BB60F921124AC
:101840002F933F934F935F936F937F938F939F93C8
:10185000AF93BF93EF93FF936091CE0081E0EBDDF8
:10186000FF91EF91BF91AF919F918F917F916F9178
:101870005F914F913F912F910F900BBE0F900FBE34
:101880000F901F901895882319F4E1ECF0E002C046
:10189000E9ECF0E08081806280830895882319F468
:1018A000E1ECF0E002C0E9ECF0E080818F7D808324
:1018B0000895282F30E0F901EE0FFF1F93E0220F6B
:1018C000331F9A95E1F7E20FF31FE65FFE4F268183
:1018D00037812115310591F1282F30E0F901EE0F04
:1018E000FF1FA3E0220F331FAA95E1F7E20FF31FBA
:1018F000E65FFE4F4181282F30E0F901EE0FFF1F18
:1019000063E0220F331F6A95E1F7E20FF31FE65FF2
:10191000FE4F9381491790F4282F30E0F901EE0F24
:10192000FF1F43E0220F331F4A95E1F7E20FF31F39
:10193000E65FFE4F9081992309F4A5CFAFCF8230A7
:1019400029F1282F30E0F901EE0FFF1F53E0220F9D
:10195000331F5A95E1F7E20FF31FE65FFE4F9081C8
:10196000992349F4882319F4E1ECF0E002C0E9EC92
:10197000F0E098E908C0882319F4E1ECF0E002C037
:10198000E9ECF0E098E1908394DF7894089588235F
:1019900019F0813029F402C080E0D1CF81E0CFCFAF
:1019A0000895A0E0B0E0E6EDFCE0A5C2D82E7A01F3
:1019B0008B01EDDF8D2D8230F1F0DD2019F4C4ECC8
:1019C000D0E002C0CCECD0E0C801B70128EF3FEF77
:1019D0004FEF5FEF37D26050734D8E4C9E4FA80192
:1019E0009701E4E0220F331F441F551FEA95D1F7FA
:1019F0004BD239832883CDB7DEB7E7E098C2D1CF89
:101A00000895282F30E0F901EE0FFF1F73E0220F39
:101A1000331F7A95E1F7E20FF31FE65FFE4F468131
:101A200057814115510509F465C0282F30E0F901AF
:101A3000EE0FFF1F93E0220F331F9A95E1F7E20F9D
:101A4000F31FE65FFE4F6181282F30E0F901EE0FB2
:101A5000FF1FA3E0220F331FAA95E1F7E20FF31F48
:101A6000E65FFE4F9381691708F044C0882319F49C
:101A7000E0ECF0E002C0E8ECF0E0908195FF3AC0C5
:101A8000882319F4A6ECB0E002C0AEECB0E0282F39
:101A900030E0F901EE0FFF1F63E0220F331F6A955C
:101AA000E1F7E20FF31FE65FFE4F9181490F511DF1
:101AB000FA0190819C93282F30E0F901EE0FFF1F6F
:101AC00093E0220F331F9A95E1F7E20FF31FE65FD1
:101AD000FE4F91819F5F282F30E0F901EE0FFF1F2D
:101AE000A3E0220F331FAA95E1F7E20FF31FE65F91
:101AF000FE4F9183DECE1F93182F823021F0CEDE71
:101B0000812F7FDF1CC080912401909125010097D7
:101B1000B1F030911F0120912101321780F406C0ED
:101B200080911F018F5F80931F01EDCF20911F01D6
:101B3000820F911DFC01808125D1882389F71F9197
:101B4000089580E0D8DF81E0D6DF82E0D4DF80E056
:101B500019DD81E017DD82E015CDF3CF0895282F40
:101B600030E0F901EE0FFF1F93E0220F331F9A952B
:101B7000E1F7E20FF31FE65FFE4F77836683282FBE
:101B800030E0F901EE0FFF1FA3E0220F331FAA95EB
:101B9000E1F7E20FF31FE65FFE4F1182282F30E0DE
:101BA000F901EE0FFF1F63E0220F331F6A95E1F783
:101BB000E20FF31FE65FFE4F4383823009F079CED8
:101BC0000895CDCF08951F920F920FB60F920BB6C6
:101BD0000F9211242F933F934F935F936F937F93B3
:101BE0008F939F93AF93BF93EF93FF9380E009DFB1
:101BF000FF91EF91BF91AF919F918F917F916F91E5
:101C00005F914F913F912F910F900BBE0F900FBEA0
:101C10000F901F9018951F920F920FB60F920BB650
:101C20000F9211242F933F934F935F936F937F9362
:101C30008F939F93AF93BF93EF93FF9381E0E1DE88
:101C4000FF91EF91BF91AF919F918F917F916F9194
:101C50005F914F913F912F910F900BBE0F900FBE50
:101C60000F901F9018956F9364E06A95F1F76F914C
:101C70000197C9F708952F928F939F932FB6809164
:101C8000B4039091B50301968093B4039093B50388
:101C900090E08091B603891F8093B6039091BC03B6
:101CA0009C5F9093BC038091BB0380519742C0F02E
:101CB0009093BC038093BB038091B7039091B803CA
:101CC00001968093B7039093B80390E08091B90395
:101CD000891F8093B9038091BA03891F8093BA0347
:101CE0002FBE9F918F912F901895CF93DF93EC018A
:101CF00004C088EE93E0B7DF21972097D1F7DF91FA
:101D0000CF910895F2CF0895E0E7F0E080818E7FD3
:101D10008083A0EBB0E08C9183608C93A1EBB0E06A
:101D20008C91807F8C938C9182608C93B89A808107
:101D300081608083789408958091BD03882321F485
:101D400081E08093BD03E0CF0895F6DFE0E7F0E0A7
:101D500080818E7F80832091B7033091B8034091BA
:101D6000B9035091BA03808181608083B901CA01AF
:101D70000895EBCF08958FEF64E041C083E867E0FA
:101D80003ED0F9CF1F93182F982F9095991F992720
:101D9000991F85E8891B65E032D0812F8F7765E038
:101DA0002ED01F9108956F9364E06A95F1F76F91BB
:101DB0000197C9F70895A1E0B0E0E0EEFEE09FC012
:101DC000182F249908C02C9906C02C9A8EE190E017
:101DD0006983E9DF698184B1806A84B92698812F9B
:101DE000837080656C7A862B8CBD81E012FF80E069
:101DF0008DBD81E090E079DF2196E3E09CC00F93F8
:101E00001F93082F162F0CB406FC03C080E064E07B
:101E1000D2DF0CB404FC03C08CB580618CBD0EBD58
:101E200003C00CB404FE0AC00DB407FEFACF1123A0
:101E300019F0812F90E0B7DF8EB501C080E01F91CF
:101E40000F910895DB018F939F9340D0BF91AF9185
:101E5000A29F800D911DA39F900DB29F900D112404
:101E6000089597FB072E16F4009406D077FD08D04E
:101E70006ED007FC05D03EF4909581959F4F089554
:101E8000709561957F4F0895A1E21A2EAA1BBB1B86
:101E9000FD010DC0AA1FBB1FEE1FFF1FA217B30736
:101EA000E407F50720F0A21BB30BE40BF50B661F4C
:101EB000771F881F991F1A9469F760957095809510
:101EC00090959B01AC01BD01CF01089554D0A59F11
:101ED000900DB49F900DA49F800D911D1124089525
:101EE0002F923F924F925F926F927F928F929F922A
:101EF000AF92BF92CF92DF92EF92FF920F931F9318
:101F0000CF93DF93CDB7DEB7CA1BDB0B0FB6F894C8
:101F1000DEBF0FBECDBF09942A88398848885F8408
:101F20006E847D848C849B84AA84B984C884DF8079
:101F3000EE80FD800C811B81AA81B981CE0FD11D5D
:101F40000FB6F894DEBF0FBECDBFED010895AA1BFA
:101F5000BB1B51E107C0AA1FBB1FA617B70710F094
:101F6000A61BB70B881F991F5A95A9F780959095C6
:101F7000BC01CD010895A29FB001B39FC001A39FF2
:101F8000700D811D1124911DB29F700D811D1124B2
:101F9000911D089570D088F09F5790F0B92F992720
:101FA000B751A0F0D1F0660F771F881F991F1AF064
:101FB000BA95C9F712C0B13081F077D0B1E0089579
:101FC00074C0672F782F8827B85F39F0B93FCCF3FA
:101FD000869577956795B395D9F73EF4909580955A
:101FE000709561957F4F8F4F9F4F0895E89409C07A
:101FF00097FB3EF490958095709561957F4F8F4F3C
:102000009F4F9923A9F0F92F96E9BB279395F69551
:10201000879577956795B795F111F8CFFAF4BB0FCF
:1020200011F460FF1BC06F5F7F4F8F4F9F4F16C033
:10203000882311F096E911C0772321F09EE8872FBD
:10204000762F05C0662371F096E8862F70E060E079
:102050002AF09A95660F771F881FDAF7880F9695F2
:10206000879597F9089557FD9058440F551F59F0DB
:102070005F3F71F04795880F97FB991F61F09F3F75
:1020800079F087950895121613061406551FF2CF9E
:102090004695F1DF08C0161617061806991FF1CFEE
:1020A00086957105610508940895E894BB27662715
:1020B0007727CB0197F908950BD078C069D028F025
:1020C0006ED018F0952309F05AC05FC01124EECFEE
:1020D000CADFA0F3959FD1F3950F50E0551F629F83
:1020E000F001729FBB27F00DB11D639FAA27F00D71
:1020F000B11DAA1F649F6627B00DA11D661F829F98
:102100002227B00DA11D621F739FB00DA11D621F7C
:10211000839FA00D611D221F749F3327A00D611D99
:10212000231F849F600D211D822F762F6A2F11247B
:102130009F5750408AF0E1F088234AF0EE0FFF1FCE
:10214000BB1F661F771F881F91505040A9F79E3F05
:10215000510570F014C0AACF5F3FECF3983EDCF35A
:10216000869577956795B795F795E7959F5FC1F742
:10217000FE2B880F911D9695879597F9089597F9ED
:102180009F6780E870E060E008959FEF80EC08951D
:1021900000240A9416161706180609060895002446
:1021A0000A9412161306140605060895092E0394C0
:1021B000000C11F4882352F0BB0F40F4BF2B11F434
:1021C00060FF04C06F5F7F4F8F4F9F4F0895CF9385
:1021D000DF938230910510F482E090E0E0910504F5
:1021E000F091060420E030E0A0E0B0E0309739F153
:1021F0004081518148175907B8F04817590771F4C1
:1022000082819381109729F013969C938E93129755
:102210002CC0909306048093050427C02115310536
:1022200031F04217530718F0A901DB0101C0EF019B
:102230009A01BD01DF010280F381E02DD7CF211586
:102240003105F9F0281B390B2430310580F48A81DF
:102250009B816115710521F0FB019383828304C08A
:102260009093060480930504FE01329644C0FE015B
:10227000E20FF31F81939193225031093983288310
:102280003AC02091030430910404232B41F420919F
:1022900032013091330130930404209303042091E0
:1022A0003001309131012115310541F42DB73EB790
:1022B0004091340150913501241B350BE09103040A
:1022C000F0910404E217F307A0F42E1B3F0B28172C
:1022D000390778F0AC014E5F5F4F2417350748F09F
:1022E0004E0F5F1F50930404409303048193919316
:1022F00002C0E0E0F0E0CF01DF91CF910895CF93ED
:10230000DF93009709F487C0FC0132971382128291
:10231000C0910504D0910604209781F42081318179
:10232000280F391F809103049091040482179307AA
:1023300079F5F0930404E09303046DC0DE0120E01E
:1023400030E0AE17BF0750F412964D915C91139791
:102350009D014115510509F1DA01F3CFB383A28341
:1023600040815181840F951F8A179B0771F48D91CD
:102370009C911197840F951F0296918380831296EA
:102380008D919C911397938382832115310529F4B4
:10239000F0930604E09305043EC0D9011396FC9324
:1023A000EE9312974D915D91A40FB51FEA17FB07AD
:1023B00079F480819181840F951F0296D90111963D
:1023C0009C938E938281938113969C938E93129704
:1023D000E0E0F0E08A819B81009719F0FE01EC01BA
:1023E000F9CFCE01029628813981820F931F209167
:1023F0000304309104042817390769F4309729F44D
:10240000109206041092050402C013821282D09327
:102410000404C0930304DF91CF9108950F931F9399
:10242000CF93DF93EC018B01009731F461157105B7
:1024300019F480E090E037C06EE070E081E090E059
:102440006BD5FC010097A9F380E883830115110582
:1024500071F01387028781E883838091070490914C
:102460000804892B21F4F0930804E09307042097D3
:10247000C9F0D187C08783818260838380910904FA
:1024800090910A04892B71F4F0930A04E0930904F3
:1024900080910B0490910C04892B21F4F0930C048F
:1024A000E0930B04CF01DF91CF911F910F9108951D
:1024B000CF93DF93CDB7DEB7FE0135966191719171
:1024C000AF018091090490910A047FD0DF91CF91F0
:1024D00008950F931F93CF93DF93E0910904F09138
:1024E0000A04238121FF1BC0EC0100E010E0899168
:1024F0006091090470910A04DB011896ED91FC913A
:102500001997882331F00995892B89F30FEF1FEF75
:10251000EECF8AE00995892B11F4C80102C08FEF34
:102520009FEFDF91CF911F910F9108950F931F930C
:10253000CF93DF93CDB7DEB72E970FB6F894DEBFFB
:102540000FBECDBF0D891E8986E08C831A83098357
:102550008FEF9FE79E838D83AE01475E5F4F6F894C
:10256000788DCE01019631D0EF81F885E00FF11F13
:1025700010822E960FB6F894DEBF0FBECDBFDF914E
:10258000CF911F910F910895CF93DF93CDB7DEB711
:102590002E970FB6F894DEBF0FBECDBF85E08C83BB
:1025A0008B899C899A838983AE01495E5F4F6D89CF
:1025B0007E89CE01019687D32E960FB6F894DEBFA2
:1025C0000FBECDBFDF91CF9108952F923F924F92D2
:1025D0005F926F927F928F929F92AF92BF92CF92B3
:1025E000DF92EF92FF920F931F93CF93DF93CDB7BC
:1025F000DEB72C970FB6F894DEBF0FBECDBF7C01BF
:102600006B018A01FC0117821682838181FFB0C1B0
:10261000CE0101964C01F7019381F60193FD85915E
:1026200093FF81916F01882309F49EC1853239F4AB
:1026300093FD859193FF81916F01853221F4B7015C
:1026400090E0F2D4E8CF512C312C20E02032A0F4DD
:102650008B3269F030F4803259F0833269F42061B2
:102660002CC08D3239F0803339F4216026C02260CD
:10267000246023C0286021C027FD27C030ED380F1B
:102680003A3078F426FF06C0FAE05F9E300D112440
:10269000532E13C08AE0389E300D1124332E206251
:1026A0000CC08E3221F426FD5FC1206406C08C363A
:1026B00011F4206802C0883641F4F60193FD85913B
:1026C00093FF81916F018111C1CF982F9F7D955408
:1026D000933028F40C5F1F4FFFE3F9830DC083365E
:1026E00031F0833771F0833509F057C021C0F8010C
:1026F000808189830E5F1F4F44244394512C5401E1
:1027000014C03801F2E06F0E711CF801A080B18096
:1027100026FF03C0652D70E002C06FEF7FEFC5019B
:102720002C8739D42C0183012C852F77222E16C0BB
:102730003801F2E06F0E711CF801A080B18026FF15
:1027400003C0652D70E002C06FEF7FEFC5012C87DD
:1027500010D42C012C852068222E830123FC19C063
:10276000832D90E048165906A0F4B70180E290E06E
:102770005BD43A94F5CFF50127FC859127FE819132
:102780005F01B70190E050D431103A94F1E04F1A54
:1027900051084114510479F7DEC0843611F08936AE
:1027A00031F5F80127FF07C0608171818281938133
:1027B0000C5F1F4F08C060817181882777FD80956D
:1027C000982F0E5F1F4F2F76B22E97FF09C090955E
:1027D0008095709561957F4F8F4F9F4F2068B22EE7
:1027E0002AE030E0A4016BD4A82EA81843C0853796
:1027F00029F42F7EB22E2AE030E025C0F22FF97F97
:10280000BF2E8F36C1F018F4883579F0ADC080370F
:1028100019F0883721F0A8C02F2F2061B22EB4FE06
:102820000DC08B2D8460B82E09C024FF0AC09F2FD5
:102830009660B92E06C028E030E005C020E130E007
:1028400002C020E132E0F801B7FE07C0608171816B
:10285000828193810C5F1F4F06C06081718180E08F
:1028600090E00E5F1F4FA4012AD4A82EA818FB2DBC
:10287000FF77BF2EB6FE0BC02B2D2E7FA51450F474
:10288000B4FE0AC0B2FC08C02B2D2E7E05C07A2CE7
:102890002B2D03C07A2C01C0752C24FF0DC0FE0126
:1028A000EA0DF11D8081803311F4297E09C022FFD9
:1028B00006C07394739404C0822F867809F07394D1
:1028C00023FD12C020FF06C05A2C731418F4530CB9
:1028D0005718732C731460F4B70180E290E02C87D2
:1028E000A3D373942C85F6CF731410F4371801C05A
:1028F000312C24FF11C0B70180E390E02C8794D3E2
:102900002C8522FF16C021FF03C088E590E002C09D
:1029100088E790E0B7010CC0822F867851F021FD46
:1029200002C080E201C08BE227FD8DE2B70190E09A
:102930007BD3A51430F4B70180E390E075D35A94AB
:10294000F8CFAA94F401EA0DF11D8081B70190E05F
:102950006BD3A110F6CF332009F45DCEB70180E22E
:1029600090E062D33A94F7CFF7018681978102C055
:102970008FEF9FEF2C960FB6F894DEBF0FBECDBF42
:10298000DF91CF911F910F91FF90EF90DF90CF904B
:10299000BF90AF909F908F907F906F905F904F907F
:1029A0003F902F90089520FD09C0FC0123FD05C034
:1029B00022FF02C07383628351834083089544FDE4
:1029C00010C046FD10C0DB01FC01AA0FBB1FEE1FAB
:1029D000FF1F1094D1F76A0F7B1F8E1F9F1F31E0DE
:1029E00003C033E001C034E0660F771F881F991FD2
:1029F0003150D1F7620F711D811D911D08950F9304
:102A00001F93CF93DF938C01C801D0D2EC0197FDC7
:102A100006C09CD2892BC1F7B801CE0137D3CE01B5
:102A2000DF91CF911F910F9108958F929F92AF9256
:102A3000CF92DF92EF92FF920F931F93CF93DF938A
:102A4000EC01A62E4A01022FB1D2AC0155274B3220
:102A5000510521F04D32510549F40068AA9411F452
:102A600080E060C0CE01A2D297FDFACF102F1D7F6B
:102A7000302F3073F1F48033E1F4FF24FA94FA0C30
:102A800009F43DC0CE0192D297FD39C0382F3F7D69
:102A9000383549F41264AA94AA9489F1CE0186D2F9
:102AA00097FF07C02CC006FF02C0126001C0126170
:102AB000AF2CC12CD12C760120ED280F283078F0D6
:102AC00014FF03C0BE01E2D217C02A3040F016FF47
:102AD000F9CF2F7D3FEE320F3630A0F72750412F30
:102AE000C701B6016CDF6B017C011260AA9451F042
:102AF000CE015CD297FFE0CF11FD04C0B1CFC12C55
:102B0000D12C760117FF08C0F094E094D094C094C3
:102B1000C11CD11CE11CF11C212FB701A601C4016D
:102B200042DF81E0DF91CF911F910F91FF90EF90F5
:102B3000DF90CF90AF909F908F9008957F928F926B
:102B40009F92AF92BF92CF92DF92EF92FF920F933C
:102B50001F93CF93DF93CDB7DEB7A1970FB6F8944D
:102B6000DEBF0FBECDBF5C017A018E010F5F1F4F2C
:102B7000680180E2D8011D928A95E9F7F50173801A
:102B800040E050E0812CB0E0912C81E090E0F90130
:102B900073FCA59173FEA1918F017A2F9F01A11162
:102BA00003C080E090E07BC0AE3519F441155105BB
:102BB00059F1E92DF0E0E417F5073CF4AD3569F182
:102BC000AD3219F4BB2319F103C0B11101C08A2E33
:102BD000E72FE695E695E69586010E0F111DF801A3
:102BE000A72FA7708C0102C0000F111FAA95E2F752
:102BF000D801B081BA2BB083781559F0781510F44C
:102C00007F5FE6CF7150E4CF9924939403C0B1E085
:102C100001C0B0E04F5F5F4FBACFBB2319F08E8188
:102C200080628E83911003C09924939415C0F6019D
:102C3000CE018196208120952193E817F907D1F7DD
:102C4000F3CFE114F10429F0D7018C93F701319609
:102C50007F016150F1F0912CC50169A3A7D169A151
:102C600097FD15C0282F269526952695F601E20F8B
:102C7000F11D208130E0AC014770552702C0359529
:102C800027954A95E2F720FDDCCFB501FFD19110E1
:102C900088CFE114F10411F0D7011C92C801A1966C
:102CA0000FB6F894DEBF0FBECDBFDF91CF911F915D
:102CB0000F91FF90EF90DF90CF90BF90AF909F90DB
:102CC0008F907F9008954F925F927F928F929F9204
:102CD000AF92BF92CF92DF92EF92FF920F931F932A
:102CE000CF93DF931F92CDB7DEB78C012B017A0112
:102CF000FC0117821682A12CF801D380F201D3FCCB
:102D00008591D3FE8191382F2F01882309F4EEC0DD
:102D100090E039831BD13981892B19F0C8016FDE0E
:102D2000EBCF353241F4F201D3FC3591D3FE319132
:102D30002F01353259F4C801398338D1398197FDD3
:102D4000D3C03817C9F2B801A1D1D0C03A3241F48A
:102D5000D3FC3591D3FE31912F01BB24B39401C034
:102D6000B12C712C20ED230F2A3088F4FB2DF2605A
:102D7000BF2E672D70E080E090E040E220DE762EEE
:102D8000F201D3FC3591D3FE31912F01EBCFB1FE8F
:102D900003C0711003C0AAC077247A94383619F0A2
:102DA0003C3661F014C0F201D3FC3591D3FE319171
:102DB0002F01383661F4FB2DF860BF2E8B2D846017
:102DC000B82EF201D3FC3591D3FE31912F0133237C
:102DD00009F48CC0632F70E08CE890E03983BED09A
:102DE0003981892B09F482C0B0FC07C0F701C0808B
:102DF000D180C70102967C0102C0C12CD12C3E3685
:102E000049F4F8014681578160E070E02B2DC6013E
:102E1000CADD72CF333699F4B1FC02C077247394C3
:102E2000C801C4D097FD60C0C114D10429F0F601D7
:102E30008083C60101966C017A9491F751C03B35AD
:102E400051F49201A601672DC80178DE2C0100978C
:102E500009F046C040C0C8013983D1DD398197FDF2
:102E600043C03F3651F128F4343619F1393661F157
:102E700028C0333769F03537E1F023C0C114D104DD
:102E800029F0F6018082C60101966C017A9459F00E
:102E9000C8018CD04C0197FD06C058D0892B71F326
:102EA000B801C401F3D0C114D104D1F0F6011082ED
:102EB00017C0FB2DF062BF2E07C08B2D8061B82E8E
:102EC00003C09B2D9064B92E2B2DA601672DC80140
:102ED000ACDD811105C0F8018381807329F406C03F
:102EE000B0FC0ACFA39408CFAA2019F08A2D90E055
:102EF00002C08FEF9FEF0F90DF91CF911F910F9145
:102F0000FF90EF90DF90CF90BF90AF909F908F9009
:102F10007F905F904F9008950F931F93CF93DF930F
:102F2000869F8001879F100D969F100D1124C80168
:102F30004ED9EC01009721F0A80160E070E024D0A8
:102F4000CE01DF91CF911F910F910895911115C17D
:102F5000803219F089508550D0F70895FC01059012
:102F6000061621F00020D9F7C00108953197CF014E
:102F70000895FC010590615070400110D8F78095CC
:102F800090958E0F9F1F0895DC0101C06D934150F5
:102F90005040E0F70895FC0161507040019001102D
:102FA000D8F7809590958E0F9F1F0895CF93DF934C
:102FB000EC012B8120FF33C026FF0AC02F7B2B831F
:102FC0008E819F8101969F838E838A8190E029C0A4
:102FD00022FF0FC0E881F9818081992787FD9095B4
:102FE000009719F420622B831AC03196F983E88385
:102FF0000EC0EA85FB85099597FF09C02B810196D4
:1030000011F480E101C080E2822B8B8308C02E8105
:103010003F812F5F3F4F3F832E83992702C08FEF61
:103020009FEFDF91CF9108950F931F93CF93DF937D
:10303000182F092FEB018B8181FD03C08FEF9FEFCC
:1030400020C082FF10C04E815F812C813D814217DC
:1030500053077CF4E881F9819F012F5F3F4F39834B
:103060002883108306C0E885F985812F0995892B6F
:1030700029F72E813F812F5F3F4F3F832E83812F82
:10308000902FDF91CF911F910F910895FB01238124
:1030900020FF12C026FD10C08F3F3FEF930761F065
:1030A00082832F7D2064238326813781215031093B
:1030B00037832683992708958FEF9FEF0895FA01AC
:1030C000AA27283051F1203181F1E8946F936E7F67
:1030D0006E5F7F4F8F4F9F4FAF4FB1E03ED0B4E058
:1030E0003CD0670F781F891F9A1FA11D680F791F99
:1030F0008A1F911DA11D6A0F711D811D911DA11DAA
:1031000020D009F468943F912AE0269F11243019B9
:10311000305D3193DEF6CF010895462F4770405D54
:103120004193B3E00FD0C9F7F6CF462F4F70405D03
:103130004A3318F0495D31FD4052419302D0A9F75E
:10314000EACFB4E0A6959795879577956795BA9558
:10315000C9F700976105710508959B01AC010A2E1E
:1031600006945795479537952795BA95C9F7620FF5
:10317000731F841F951FA01D089599278827089500
:04318000F894FFCFF1
:10318400F401F40105000101021000000000000038
:10319400000000000000000000000000000001002A
:1031A4000000000000000000FFFFFFFFFFFFFFFF23
:1031B40000000D04200043616E6E6F7420746F670D
:1031C400676C65206E65676174697665206D732E22
:1031D40000436F6E76657274656420746F20746F3B
:1031E40067676C6520706572696F643A2025642E88
:1031F4000A00677265656E20706572696F642025C8
:10320400640A00477265656E20746F20746F676787
:103214006C652061742066726571202564487A208B
:1032240028706572696F64202564206D73290A0013
:10323400496E697469616C697A696E6720736F6637
:10324400747761726520636C6F636B20746F2066A2
:103254007265712031303030487A20287065726987
:103264006F642031206D732900496E697469616C43
:10327400697A696E672079656C6C6F7720636C6F0F
:10328400636B20746F2066726571202564487A2010
:1032940028706572696F64202564206D73290A00A3
:1032A400677265656E20706572696F6420256C7540
:1032B4000A00536574204F4352314120746F202516
:1032C4006C750A00496E697469616C697A696E6724
:1032D40020677265656E20636C6F636B20746F206A
:1032E40066726571202564487A2028706572696F5A
:1032F40064202564206D73290A00555342205365C8
:103304007269616C20496E697469616C697A65647B
:103314000D0A000D4D656E753A207B54505A7D2080
:103324007B524759417D203C696E743E3A2000250A
:1033340063202563202564000D0A30703A2563203C
:10334400433A256320563A25640D0A0042616420FD
:10335400436F6C6F722E20547279207B524759410F
:103364007D0D0A005220746F67676C65733A2025DF
:103374006C750D0A004720746F67676C65733A209B
:10338400256C750D0A005920746F67676C65733A74
:1033940020256C750D0A00546F67676C65732052A5
:1033A4003A256C7520473A256C7520593A256C7579
:1033B4000D0A0044656661756C7420696E2070287E
:1033C400636F6C6F72292E20486F773F0D0A00449B
:1033D400656661756C7420696E207A28636F6C6F02
:1033E40072292E20486F773F0D0A00436F6D6D617F
:1033F4006E6420646F6573206E6F7420636F6D70EC
:083404007574652E0D0A00002D
:00000001FF
